:020000040000FA
:02000000C12914
:040002000034003492
:0200080053287B
:1000400018000000190000001A0000001B0000004A
:1000800020008B130B1221000030990021009513E2
:1000900023008E0123008D0123008C010800200025
:1000A0000B178B1708004A210900552823009F10C1
:1000B0001F109F151E152000A001A101A301A4017E
:1000C000230002309C0008309B0023001E122300F6
:1000D0009D1723009E161D131D1621000E122000D1
:1000E0000E1208002000911E94282000240A0339D3
:1000F000230603198D28230019082000A50060306D
:10010000840085012408840725088000A40A0330A0
:10011000A40520000E160E129428230019082000B2
:100120000E160E120E160E120800200020082106D0
:100130000319AA282000111EAA282000703084006C
:10014000850120088407000823009A002000A00AE7
:100150000F30A00508002000A200210A0F39200658
:100160000319BD2870308400850121088407220806
:100170008000A10A0F30A10508006400BD282000FE
:100180000D160D1721000D120D132000A6012100E0
:100190000C1120000C1108002000A800080020000D
:1001A0002608080020002608031DE828200029084A
:1001B0002A060319080020002C3084008501290834
:1001C0008407000817212000A90A0330A9050800A8
:1001D0000A302606031DF12820000C150C1103100F
:1001E000FB2801302606031DF82820000314FB28F5
:1001F0002000A70CFB2820000C150C112000A603E2
:10020000031C0D2903292000281E07290A29200084
:100210000D17080020000D1608002000281E1129C7
:10022000142920000D13080020000D1208002000E2
:10023000A7000A30A60008002000AB002A0A0339F4
:10024000290603192E292C30840085012A088407E9
:100250002B088000AA0A0330AA05080064002E2992
:1002600020001817981318151812981220009913C7
:10027000B001B101DF3097007230960011102100FB
:100280001114200018142000321021008E132000B9
:100290008E1308002000111C612920001810200076
:1002A00072309600DF3097002000111020001814E3
:1002B00020008E178E13B00A0319B10A20003214E1
:1002C000D220080021000F308E0020000F30B30034
:1002D00021000E1320000E13080020000E080F3915
:1002E000B400330603199F29B60020000E170E1321
:1002F0000E170E1320003408B3002000B501B60C11
:10030000031C9829B40CB50D0130AB203508AB2087
:100310003008AB203108AB2020003508063A200019
:10032000031D94290E1395290E172000B50CB40D4A
:10033000B40C0430350603199F29B50A7F2908003B
:1003400008002000230824060319C0292308033EBF
:1003500003392406031DC029A301A4016108013A41
:10036000031DB9294030CC2074301C2162081C21A7
:10037000C0291030CC2074301C2162081C21C029F7
:1003800008004020302156206221BF20A0214F20AC
:1003900064002000321CD6293008033903196D216E
:1003A00095207220A12120003210C829C8291030C0
:0E03B000CC20CF20031DC82955301721C829A5
:020000040001F9
:02000E00FA00F6
:020010000308E3
:00000001FF
