:020000040000FA
:02000000BC2919
:040002000034003492
:0200080053287B
:1000400018000000190000001A0000001B0000004A
:1000800020008B130B1221000030990021009513E2
:1000900023008E0123008D0123008C010800200025
:1000A0000B178B1708006B21B3200900562823007B
:1000B000003092001513203091001514000000004C
:1000C0001308F000213091001514000000001308FF
:1000D000F100223091001514000000001308F20016
:1000E000233091001514000000001308F3002430A1
:1000F00091001514000000001308F4002530910051
:100100001514000000001308F500263091001514A6
:10011000000000001308F6002730910015140000BD
:1001200000001308F7000800220097179715171111
:10013000971017102200911391121112111591109E
:100140001110921712139216121212119214141007
:1001500023000E1521000E1320000E13220091170C
:100160002100921608002000921E08009212200022
:100170000E170E139F21080023009F101F109F11C0
:100180001E159C0104309B001D131D169D17200099
:100190000030A10021000E1220000E1221000800E4
:1001A0002000911E532920002108003A031DE42855
:1001B00023001D1DE22820000130A10020000E16A2
:1001C0000E1253291908532920002108013A031D52
:1001D000002923001D1DEE281908532919080319A9
:1001E000F52820000030A10053292000A201A3011E
:1001F0000230A10020000E160E120E160E12532908
:1002000020002108023A031D4F2923001D194B2904
:1002100019082000A400200022087006031D1729D9
:1002200023087106031D17292408A500A509220823
:100230007206031D222923087306031D22292408A0
:10024000A600A60922087406031D2D292308750699
:10025000031D2D292408A700A70922087606031DDF
:10026000382923087706031D38292408A800A8097F
:100270002000A20F3C29A30A2308023A031D532998
:100280000030A10020000E160E120E160E120E16D1
:100290000E126400532920000030A10053292000D1
:1002A0000E160E124F290800200018179813181563
:1002B0001812981220009913A901FD309700EF3011
:1002C00096001110210011142000181421008E1323
:1002D00020008E1308002000111C84292000181013
:1002E0002000EF309600FD30970020001110200014
:1002F000181420008E178E1399212000A90A031DBF
:100300008329A9038429A321080020001810EF30B5
:100310009600FD30970020001110200018142000D6
:10032000A901080021008E128E110C118E10992146
:10033000080022008E128E110C118E1008008521EB
:100340009921A32108002000290FA72908002508CA
:10035000031D290603198E162608031D29060319F5
:100360008E152708031D290603190C152808031DDF
:10037000290603198E140800402057205421BC2060
:10038000942092214F20C030A5008030A60040303C
:10039000A7000030A800D020CB29CD2921008E1243
:1003A00020000E16000000000E1223009E131E13E4
:1003B0001E1223009E169E1CDB2955309A00DB2955
:020000040001F9
:02000E00FA00F6
:020010000308E3
:00000001FF
